{
  "contractName": "Casino",
  "abi": [
    {
      "constant": false,
      "inputs": [],
      "name": "kill",
      "outputs": [],
      "payable": false,
      "stateMutability": "nonpayable",
      "type": "function"
    },
    {
      "inputs": [
        {
          "name": "_minBet",
          "type": "uint256"
        },
        {
          "name": "_houseEdge",
          "type": "uint256"
        }
      ],
      "payable": true,
      "stateMutability": "payable",
      "type": "constructor"
    },
    {
      "payable": false,
      "stateMutability": "nonpayable",
      "type": "fallback"
    },
    {
      "anonymous": false,
      "inputs": [
        {
          "indexed": false,
          "name": "_status",
          "type": "bool"
        },
        {
          "indexed": false,
          "name": "_amount",
          "type": "uint256"
        }
      ],
      "name": "Won",
      "type": "event"
    },
    {
      "constant": false,
      "inputs": [
        {
          "name": "_number",
          "type": "uint256"
        }
      ],
      "name": "bet",
      "outputs": [],
      "payable": true,
      "stateMutability": "payable",
      "type": "function"
    },
    {
      "constant": true,
      "inputs": [],
      "name": "checkContractBalance",
      "outputs": [
        {
          "name": "",
          "type": "uint256"
        }
      ],
      "payable": false,
      "stateMutability": "view",
      "type": "function"
    }
  ],
  "bytecode": "0x60806040526040516040806103e78339810180604052810190808051906020019092919080519060200190929190505050336000806101000a81548173ffffffffffffffffffffffffffffffffffffffff021916908373ffffffffffffffffffffffffffffffffffffffff16021790555060008211151561007f57600080fd5b6064811115151561008f57600080fd5b81600181905550806002819055505050610339806100ae6000396000f300608060405260043610610057576000357c0100000000000000000000000000000000000000000000000000000000900463ffffffff16806341c0e1b51461006957806350312c9e146100805780637365870b146100ab575b34801561006357600080fd5b50600080fd5b34801561007557600080fd5b5061007e6100cb565b005b34801561008c57600080fd5b50610095610160565b6040518082815260200191505060405180910390f35b6100c9600480360381019080803590602001909291905050506101da565b005b6000809054906101000a900473ffffffffffffffffffffffffffffffffffffffff1673ffffffffffffffffffffffffffffffffffffffff163373ffffffffffffffffffffffffffffffffffffffff1614151561012657600080fd5b6000809054906101000a900473ffffffffffffffffffffffffffffffffffffffff1673ffffffffffffffffffffffffffffffffffffffff16ff5b60008060009054906101000a900473ffffffffffffffffffffffffffffffffffffffff1673ffffffffffffffffffffffffffffffffffffffff163373ffffffffffffffffffffffffffffffffffffffff161415156101bd57600080fd5b3073ffffffffffffffffffffffffffffffffffffffff1631905090565b6000806000831180156101ee5750600a8311155b15156101f957600080fd5b600154341015151561020a57600080fd5b6001600a4381151561021857fe5b06019150818314156102c357600a600254606403340281151561023757fe5b0490503373ffffffffffffffffffffffffffffffffffffffff166108fc829081150290604051600060405180830381858888f19350505050151561027a57600080fd5b7f2fda3525453650e1c58417dd4764ce9fc5c5f0f77f345a43758186d3d01909d160018260405180831515151581526020018281526020019250505060405180910390a1610308565b7f2fda3525453650e1c58417dd4764ce9fc5c5f0f77f345a43758186d3d01909d160008060405180831515151581526020018281526020019250505060405180910390a15b5050505600a165627a7a72305820531d25026d7d8e42eec8290e74f0113046dc1000abf40a25f9bc5ed0e27ec3550029",
  "source": "pragma solidity ^0.4.0;\n\ncontract Ownable {\n address owner;\n constructor() public {\n//Set owner to who creates the contract\n owner = msg.sender;\n }\n//Access modifier\nmodifier Owned {\n require(msg.sender == owner);\n _;\n }\n}\ncontract Mortal is Ownable {\n//Our access modifier is present, only the contract creator can      use this function\n  function kill() public Owned {\n selfdestruct(owner);\n }\n}\n\ncontract Casino is Mortal{\n uint minBet;\n uint houseEdge; //in %\n//true+amount or false+0\nevent Won(bool _status, uint _amount);\n constructor(uint _minBet, uint _houseEdge) payable public {\n require(_minBet > 0);\n require(_houseEdge <= 100);\n minBet = _minBet;\n houseEdge = _houseEdge;\n }\n\nfunction bet(uint _number) payable public {\n require(_number > 0 && _number <= 10);\n require(msg.value >= minBet);\n uint winningNumber = block.number % 10 + 1;\n if (_number == winningNumber) {\n   uint amountWon = msg.value * (100 - houseEdge)/10;\n   if(!msg.sender.send(amountWon)) revert();\n   emit Won(true, amountWon);\n } else {\n   emit Won(false, 0);\n }\n}\n\nfunction checkContractBalance() Owned public view returns(uint) {\n  return address(this).balance;\n }\n\nfunction() public { //fallback\n revert();\n }\n}\n",
  "sourcePath": "/Users/bobby/Code/solidity/bet-app/contracts/Casino.sol",
  "compiler": {
    "name": "solc",
    "version": "0.4.24+commit.e67f0147.Emscripten.clang"
  },
  "schemaVersion": "2.0.1",
  "updatedAt": "2018-07-28T07:58:35.502Z"
}