{
  "contractName": "Mortal",
  "abi": [
    {
      "constant": false,
      "inputs": [],
      "name": "kill",
      "outputs": [],
      "payable": false,
      "stateMutability": "nonpayable",
      "type": "function"
    }
  ],
  "bytecode": "0x6080604052336000806101000a81548173ffffffffffffffffffffffffffffffffffffffff021916908373ffffffffffffffffffffffffffffffffffffffff160217905550610118806100536000396000f300608060405260043610603f576000357c0100000000000000000000000000000000000000000000000000000000900463ffffffff16806341c0e1b5146044575b600080fd5b348015604f57600080fd5b5060566058565b005b6000809054906101000a900473ffffffffffffffffffffffffffffffffffffffff1673ffffffffffffffffffffffffffffffffffffffff163373ffffffffffffffffffffffffffffffffffffffff1614151560b257600080fd5b6000809054906101000a900473ffffffffffffffffffffffffffffffffffffffff1673ffffffffffffffffffffffffffffffffffffffff16ff00a165627a7a7230582079ea538dffe03649567afbef1d2dab21c12029d6a3575f2372eff1f2fe98cd9a0029",
  "source": "pragma solidity ^0.4.0;\n\ncontract Ownable {\n address owner;\n constructor() public {\n//Set owner to who creates the contract\n owner = msg.sender;\n }\n//Access modifier\nmodifier Owned {\n require(msg.sender == owner);\n _;\n }\n}\ncontract Mortal is Ownable {\n//Our access modifier is present, only the contract creator can      use this function\n  function kill() public Owned {\n selfdestruct(owner);\n }\n}\n\ncontract Casino is Mortal{\n uint minBet;\n uint houseEdge; //in %\n//true+amount or false+0\nevent Won(bool _status, uint _amount);\n constructor(uint _minBet, uint _houseEdge) payable public {\n require(_minBet > 0);\n require(_houseEdge <= 100);\n minBet = _minBet;\n houseEdge = _houseEdge;\n }\n\nfunction bet(uint _number) payable public {\n require(_number > 0 && _number <= 10);\n require(msg.value >= minBet);\n uint winningNumber = block.number % 10 + 1;\n if (_number == winningNumber) {\n   uint amountWon = msg.value * (100 - houseEdge)/10;\n   if(!msg.sender.send(amountWon)) revert();\n   emit Won(true, amountWon);\n } else {\n   emit Won(false, 0);\n }\n}\n\nfunction checkContractBalance() Owned public view returns(uint) {\n  return address(this).balance;\n }\n\nfunction() public { //fallback\n revert();\n }\n}\n",
  "sourcePath": "/Users/bobby/Code/solidity/bet-app/contracts/Casino.sol",
  "compiler": {
    "name": "solc",
    "version": "0.4.24+commit.e67f0147.Emscripten.clang"
  },
  "schemaVersion": "2.0.1",
  "updatedAt": "2018-07-28T07:58:34.694Z"
}